:100000004FC086C171C070C06FC06EC06DC06CC083
:100010006BC06AC069C068C067C066C065C064C0A4
:1000200063C062C061C00902120001010080320990
:1000300004000000FF00000012011001FF00000892
:10004000C016DC0501000102030122035400720006
:1000500061006E00730066006F0072006D00610049
:100060007400690063004D006B00490012037400C6
:1000700069006E0079002D007000770072001E0389
:100080007700770077002E006E00630072006D002D
:100090006E0074002E006F007200670004030904F4
:1000A00011241FBECFEDCDBF10E0A0E6B0E0E4E12B
:1000B000F6E002C005900D92A236B107D9F710E024
:1000C000A2E6B0E001C01D92AD38B107E1F7F894A7
:1000D00078948FEF87BB8AD212BA87E088BBF8D0BA
:1000E00004D0FECF91D293C28BCFCF93DF93809178
:1000F0007300835087FD96C02091700090916F002F
:100100009D3209F08DC0883009F08AC08CE090E003
:10011000821B9109EC01C958DF4F23EC2093630047
:100120002AE520936000109262002881207619F061
:10013000CE0121D26CC03A8110926C002981222319
:1001400031F410926D002CE630E082E05CC0253086
:1001500019F4309374004DC0263009F041C0FC0101
:10016000E758FF4F208186589F4FFC0180818130E6
:1001700019F488E390E01FC0823019F486E290E021
:100180001AC0833041F5222341F48CE990E090932A
:1001900072008093710084E01FC0213041F48EE72B
:1001A00090E090937200809371008EE115C0223030
:1001B00041F48CE690E0909372008093710082E1AC
:1001C0000BC0233041F48AE490E090937200809356
:1001D000710082E201C080E090E49093620017C059
:1001E000283059F0293019F43093760002C02A30B3
:1001F00039F02CE630E080E006C026E730E002C0AF
:100200002CE630E081E030937200209371009F81F2
:10021000992321F49E81981708F4892F8093610017
:10022000109273008091600084FF45C0809161004E
:100230008F3F09F440C0C82F893008F0C8E08C1BFC
:10024000809361008091630098E889278093630020
:10025000CC2329F18091710090917200209162006D
:1002600026FF0AC0FC012C2FA4E6B0E034913D9398
:1002700031962150D9F708C0DC012C2FE4E6F0E0DC
:100280003D9131932150E1F72C2F215030E02F5F29
:100290003F4F280F391F309372002093710084E67E
:1002A00090E06C2F31D0CC5FCC3019F08FEF809381
:1002B0006100C093600084E190B39C7031F4815080
:1002C000D9F71092740010926E00DF91CF910895CB
:1002D00085B7826085BF8BB780648BBF0895A82FD8
:1002E000B92F80E090E041E050EA609530E009C02D
:1002F0002D9182279795879510F084279527305E5A
:10030000C8F36F5FA8F30895EADF8D939D93089576
:10031000CF93CFB7CF93C395829BE9F7829B09C058
:10032000829B07C0829B05C0829B03C0829B01C049
:10033000A1C0DF93C0917000DD27C958DF4F829BB9
:1003400002C0DF91EBCF2F930F931F9300B32FEFDA
:1003500002FB20F94F933F9310B34FEF012702FBAD
:1003600021F93BE031C04E7F012F10B3216028C03E
:10037000102F4D7F2260000000B329C04B7F246006
:10038000012F000010B32BC010B3477F28602AC094
:100390004F7E00B320612CC04F7D10B320622FC070
:1003A0004F7B00B3206432C0422700B349934FEF24
:1003B0000000102712FB20F910B31C70C9F1297F2F
:1003C00091F2012702FB21F900B3237F89F231501A
:1003D00058F1102712FB22F910B3277E79F201277A
:1003E00002FB23F92F7C81F200B3102712FB24F9C2
:1003F0002F7971F200C010B3012702FB25F92F738A
:1004000059F200C000B3102712FB26F9223040F247
:1004100000C010B3012702FB27F9243028F64F77DC
:10042000206810B30000F9CF10E41ABF002717C0EE
:100430003B503195C31BD04010E41ABF0881033CE8
:10044000E9F00B34D9F020916E001981110F1213CD
:10045000EDCF093641F10D3211F0013E39F700932D
:1004600075003F914F911F910F912F91DF91CAB766
:10047000C6FD51CFCF91CFBFCF9118952091750078
:10048000222379F310917300112311F5343012F106
:100490003093730020936F00109170003BE0311B8C
:1004A0003093700017C00091730001308CF40AE59E
:1004B0003091600034FD10C000936000C3E6D0E0CE
:1004C0000FC02795A8F45150A9F4220F0000F9CFCE
:1004D0004AE503C042ED01C0432FC4E1D0E032E061
:1004E00011B31C60929A11BB02B320E41CE05F932D
:1004F000012756E002BB279520F4515021F4220F2A
:10050000F9CF012756E000003B5A02BBD0F22795F5
:1005100028F4515029F4220F0000F9CF012756E0AA
:10052000279502BB20F4515021F4220FF9CF012767
:1005300056E02991332302BB21F6037F109174000A
:10054000110FC651D04002BB11F010936E0010E4A1
:100550001ABF046011B3137F402F437F5F9100C027
:1005600000C002BB11BB42BB7CCF02C000000197A0
:100570000097E1F70895FC0121812830C0F48281C1
:1005800038B3882351F081E090E002C0880F991FB2
:100590002A95E2F7382B38BB0AC081E090E002C010
:1005A000880F991F2A95E2F78095832388BB2181C4
:1005B000285021832830C0F4828132B3882351F03F
:1005C00081E090E002C0880F991F2A95E2F7382B4E
:1005D00032BB0AC081E090E002C0880F991F2A95C3
:1005E000E2F78095832382BB80E008958FEF81BB83
:1005F00084EC99E02CE231E0F9013197F1F70197B1
:10060000D9F783EF81BB089580E090E0089561CD34
:04061000F894FFCF8C
:020614005AFF8B
:00000001FF
